:100000000C9446000C9465000C9465000C946500FB
:100010000C9465000C9465000C9465000C946500CC
:100020000C9465000C9465000C9465000C946500BC
:100030000C9465000C94FF000C9465000C94650012
:100040000C9465000C9465000C9465000C9465009C
:100050000C9465000C9465000C9465000C9465008C
:100060000C9465000C9465000C9465000C9465007C
:100070000C9465000C9465000C9465000C9465006C
:100080000C9465000C9465000C94650011241FBE4F
:10009000CFEFD0E4DEBFCDBF11E0A0E0B1E0ECE6F1
:1000A000F4E000E00BBF02C007900D92A430B1074E
:1000B000D9F711E0A4E0B1E001C01D92AB30B10767
:1000C000E1F70E9415020C9434020C94000040E009
:1000D00050E00CC000002F5F3F4F02C020E030E036
:1000E000273063E03607B4F34F5F5F4F4817590777
:1000F000ACF308955E9888B95F9A00005F9882E03B
:1001000090E00E946700089581E00E947A000895BF
:10011000813120F481580E947A00089581550E940F
:100120007A00089584E690E00E94670088E30E94C8
:100130007A0086E00E947A008FE00E947A0081E0D7
:100140000E947A008AE090E00E94670008955E9A1B
:1001500088B95F9A00005F9881E090E00E94670094
:100160000895EF92FF920F931F93CF93DF93182F71
:10017000EB010E9484000EC001E0010F812F0E945C
:1001800088007E018FEFE81AF80A88810E94A70094
:10019000102FE70188818111EFCFDF91CF911F915F
:1001A0000F91FF90EF9008958BE0809381008DE791
:1001B00090E0909389008093880082E080936F00A4
:1001C00010928500109284008091000190910101AD
:1001D000A0910201B0910301809304019093050165
:1001E000A0930601B09307018FB780688FBF089571
:1001F00010928100089581E08093080108951F9274
:100200000F920FB60F9211240BB60F922F933F93BC
:100210004F935F936F937F938F939F93AF93BF930E
:10022000EF93FF938091040190910501A091060145
:10023000B09107010197A109B1098093040190933E
:100240000501A0930601B0930701892B8A2B8B2B04
:1002500091F40E94FB008091000190910101A09116
:100260000201B09103018093040190930501A093D2
:100270000601B0930701FF91EF91BF91AF919F915C
:100280008F917F916F915F914F913F912F910F903F
:100290000BBE0F900FBE0F901F901895609300013A
:1002A0007093010180930201909303016093040114
:1002B0007093050180930601909307010895CF93F1
:1002C000DF93EC0180B18095817090B19095927030
:1002D000C230D105D9F034F42097C9F1C130D1052D
:1002E00041F04CC0C330D105F1F0C430D10541F12B
:1002F00045C0882311F0992369F1811102C0911141
:100300002CC081113BC0992359F138C0882311F0CA
:100310009923A1F1882311F0911125C081112EC0DC
:10032000992321F12BC0811102C0911127C088238C
:1003300011F091111EC0811121C09923E9F01EC056
:1003400081111CC091111AC0C1E0D0E017C0C1E0FA
:10035000D0E014C0C2E0D0E011C0C3E0D0E00EC0D5
:10036000C3E0D0E00BC0C4E0D0E008C0C1E0D0E002
:1003700005C0C4E0D0E002C0C1E0D0E0C230D10589
:10038000B1F034F4209759F0C130D10569F03DC087
:10039000C330D10511F1C430D105A9F136C0109296
:1003A0000A011092090131C0109209012EC08091FA
:1003B0000A01893060F490910901943019F48F5F3B
:1003C00080930A0180910A018F5F80930A018091D6
:1003D00009018F5F8093090118C080910A01882369
:1003E00061F090910901943019F4815080930A01D1
:1003F00080910A01815080930A01809109018F5FE9
:100400008093090102C010920A0160910A0170E014
:10041000605D7F4F81E090E00E94A70080910A011B
:1004200088B9CE01DF91CF91089511B88FEF82B9CD
:1004300087B918B88AB91BB86AEF70E080E090E01D
:100440000E944E010E94D4000E94920020E030E001
:10045000C9010E945F019C0102C0109208019091A5
:0C04600008019923D1F3F4CFF894FFCFEA
:04046C00010000008B
:00000001FF
