:1000000045C0000060C000005EC000005CC0000091
:100010005AC0000058C0000056C0000054C0000084
:1000200052C0000050C000004EC000004CC0000094
:100030004AC00000C5C0000046C0000044C0000027
:1000400042C0000040C000003EC000003CC00000B4
:100050003AC0000038C0000036C0000034C00000C4
:1000600032C0000030C000002EC000002CC00000D4
:100070002AC0000028C0000026C0000024C00000E4
:1000800022C0000020C000001EC0000011241FBEBE
:10009000CFEFD0E4DEBFCDBF11E0A0E0B1E0E8EBF0
:1000A000F3E000E00BBF02C007900D92A231B10750
:1000B000D9F721E0A2E1B1E001C01D92A931B20758
:1000C000E1F760D177C19CCF181619065CF008954E
:1000D000000021503109E1F74F5F5F4F841795070A
:1000E00019F4089540E050E027E033E0F1CF5E9846
:1000F00088B95F9A00005F9882E090E0E5CF0895AC
:1001000081E0F5CF0895813118F48158F0CF08953A
:100110008155EDCF089584E690E0D6DF88E3E7DFF0
:1001200086E0E5DF8FE0E3DF81E0E1DF8AE090E079
:10013000CBCF08955E9A88B95F9A00005F9881E0FE
:1001400090E0C2CF08950F931F93CF93DF93182FA2
:10015000EB01D6DF8881882351F001E0010F812F68
:10016000D2DF8991E7DF102F88818111F6CFDF91EF
:10017000CF911F910F9108958BE0809381008DE7BF
:1001800090E0909389008093880082E080936F00D4
:1001900010928500109284008091000190910101DD
:1001A000A0910201B0910301809314019093150175
:1001B000A0931601B09317018FB780688FBF089581
:1001C0001F920F920FB60F9211248F939F93AF93AC
:1001D000BF938091140190911501A0911601B091E7
:1001E00017010197A109B10980931401909315019A
:1001F000A0931601B0931701892B8A2B8B2B99F4AE
:1002000081E0809318018091000190910101A091FB
:100210000201B09103018093140190931501A09302
:100220001601B0931701BF91AF919F918F910F90DD
:100230000FBE0F901F9018956093000170930101FD
:100240008093020190930301609314017093150150
:1002500080931601909317010895CF93DF93EC01DB
:1002600080B1982F917080B180958270C230D10595
:10027000C9F034F4209709F443C0219741F039C004
:10028000C430D10511F1CCF0259729F132C091117C
:1002900006C0882309F43DC0C4E0D0E063C08111EA
:1002A0005CC02EC0911106C0882309F443C0C4E08D
:1002B000D0E058C0882321F12CC0992319F0811176
:1002C00039C01EC081114CC04DC0992309F44AC0E9
:1002D000811148C015C0209113012230D0F4911132
:1002E00005C0882339F1C4E0D0E03CC0882341F048
:1002F00021C01092120110921301C0E0D0E032C070
:100300001092130164E071E085E01DDFC1E0D0E0F0
:1003100029C069E071E085E016DF809112018F5FEE
:1003200080931201809113018F5F80931301C2E0CB
:10033000D0E018C06DE071E085E005DF8091130129
:100340008F5F833028F480931301C5E0D0E00AC0AA
:1003500010921301C5E0D0E005C0C3E0D0E002C0B8
:10036000C4E0D0E081E0CFDE80911201805DE2DE6A
:100370008AE0C9DE80911301805DDCDECE01DF9171
:10038000CF91089511B88FEF82B987B918B88AB99B
:100390001BB86AEF70E080E090E04EDFEDDEBBDE80
:1003A00080E090E05ADF909118019923E1F31092D8
:0803B0001801F7CFF894FFCF0C
:1003B800010000007761697400696E630068496E26
:0203C8006300D0
:00000001FF
